:1000000027C04BC04AC049C048C0A4C146C045C073
:1000100044C043C042C041C040C03FC03EC00000D9
:10002000000036000000000037000000000038002B
:10003000020202020202020202020102040810206D
:100040002004100801020000040000000000FF046A
:1000500011241FBECFE5D1E0DEBFCDBF10E0A0E68A
:10006000B0E0EEEEFFE002C005900D92AA36B107B7
:10007000D9F720E0AAE6B0E001C01D92AF3BB2077D
:10008000E1F710E0C8E2D0E003C02197FE01A7D756
:10009000C732D107D1F7A8D1A8C7B2CF90E0FC01F1
:1000A000EC5BFF4F2491FC01E65CFF4F3491FC01B7
:1000B000E05DFF4FE491EE2341F1222399F02230DD
:1000C00071F028F4213071F48AB58F770AC023309B
:1000D00011F0243039F48CB58F7D8CBD03C08AB506
:1000E0008F7D8ABDF0E0EE0FFF1FE65DFF4FA5910B
:1000F000B4919FB7F894611104C08C913095382366
:1001000002C0EC913E2B3C939FBF0895CF93DF93A9
:1001100090E0FC01E65CFF4F2491FC01E05DFF4FA5
:100120008491882361F190E0880F991FFC01EC5DB8
:10013000FF4FC591D491FC01E65DFF4FA591B491AD
:10014000611109C09FB7F894888120958223888324
:10015000EC912E230BC0623061F49FB7F894888134
:10016000322F309583238883EC912E2B2C939FBFC5
:1001700006C08FB7F894E8812E2B28838FBFDF91BC
:10018000CF9108952FB7F89460917100709172002B
:1001900080917300909174002FBF0895CF93DF93E7
:1001A000C1E8D0E01982188260E080E077DF1B822E
:1001B0001A8260E081E072DF1D821C8260E084E0D0
:1001C000DF91CF916BCFCF92DF92EF92FF920F939F
:1001D0001F93CF93DF9392E0C92ED12CE12CF12C09
:1001E000C3E0D0E002E010E0A9D4A701960115D544
:1001F00020916A0030916B00613071058105910595
:1002000019F4C901019602C0C901019790936B00CE
:1002100080936A0080916A0090916B0097FF05C0FF
:1002200010936B0000936A0006C0BE01B1D6909394
:100230006B0080936A00E0916A00F0916B00EE0F12
:10024000FF1FEB56FF4F80819181019669F6118265
:10025000108274D420ED37E040E050E0DED4DC01C1
:10026000CB0188519C4FAF4FBF4F90939400809328
:100270009300DF91CF911F910F91FF90EF90DF904E
:10028000CF9008950F931F93CF93DF93EC01CC0F82
:10029000DD1FFE01EB56FF4F81E090E091838083EC
:1002A0004DD48E0105581F4F29E130E040E050E069
:1002B000B4D4DC01CB010596A11DB11DF8019183D9
:1002C00080833CD4CB58DF4F24E833E040E050E05B
:1002D000A4D4DC01CB018C599F4FAF4FBF4F998302
:1002E0008883DF91CF911F910F91089527D420ED3E
:1002F00037E040E050E091D4DC01CB0188519C4FC5
:10030000AF4FBF4F9093940080939300E5E9F0E0E6
:100310008FEF9FEF91838083938382839583848380
:100320000DD423E030E040E050E077D4E7D421D58D
:10033000B2D470936B0060936A00CB01A3DF43DFFC
:1003400021DF60939B0070939C0080939D009093AD
:100350009E0024CF1F920F920FB60F9211242F935D
:100360003F938F939F93AF93BF9380917100909130
:100370007200A0917300B09174003091700020E37E
:10038000230F2D3720F44096A11DB11D05C023EB8E
:10039000230F4196A11DB11D209370008093710021
:1003A00090937200A0937300B093740080916C00DE
:1003B00090916D00A0916E00B0916F000196A11D0B
:1003C000B11D80936C0090936D00A0936E00B0936C
:1003D0006F00BF91AF919F918F913F912F910F909F
:1003E0000FBE0F901F90189578948AB582608ABDD1
:1003F0008AB581608ABD83B7826083BF83B781601D
:1004000083BF89B7826089BF80B7826080BF32981E
:10041000319A309A379A8CB580648CBD61E080E067
:1004200075DE61E081E072DE61E084E06FDEB6DE01
:100430005DDF22242394312C01E810E034E6E32E22
:1004400030E0F32E5801D501CD91DD915D011C16F0
:100450001D069CF5F701C080D18061E08C2D56DE31
:10046000CF3FD10539F1F601FF27EC5BFF4FE49157
:10047000E23089F038F4E130C1F48AB580688ABD91
:10048000C9BD1FC0E33061F0E43079F48CB58062FF
:100490008CBDCBBD16C08AB580628ABDC8BD11C0F7
:1004A0008CB580628CBDCEBD0CC0C038D10514F4B3
:1004B00060E001C061E08C2D03C060E0D7018C9149
:1004C000EDDDB2E0EB0EF11CEAE6EE16E0E0FE0632
:1004D00009F0B9CF1092B5001092B6001092B70093
:1004E0001092B8008091A1009091A20097FD7DC06C
:1004F0002FE0F894E091BA00F091BB0092818091D6
:10050000B900809589238283E091BD00F091BE00FF
:1005100091818091BC00809589238183E091BD0009
:10052000F091BE0092818091BC00809589238283E6
:10053000E091BD00F091BE0091818091BC00892BBB
:100540008183E091BD00F091BE0092818091BC005A
:10055000809589238283E091BD00F091BE00918156
:100560008091BC00809589238183E091BD00F0914A
:10057000BE0092818091BC00809589238283E091A6
:10058000BA00F091BB0092818091B900892B8283DF
:100590007894E091BD00F091BE003091BC00409194
:1005A000A9005091AA006091AB007091AC00C0818D
:1005B000C3238091B5009091B600A091B700B0918F
:1005C000B800C1111AC184179507A607B70708F02C
:1005D00014C10196A11DB11D8093B5009093B60082
:1005E000A093B700B093B800E2CF4FEF5FEFBA012E
:1005F00080919F009091A0000097A1F44E32510588
:1006000061057105DCF0BEDD60939B0070939C007A
:1006100080939D0090939E003092A00020929F00B6
:10062000BDDD0CC0019751F44E32510561057105D5
:100630002CF41092A00010929F0058DE80919F0031
:100640009091A000892B09F0D1C09CDD2B013C01C9
:1006500085E9E82E80E0F82EC7E8D0E095E7A92EDE
:1006600090E0B92E2BE7822E20E0922EC12CD12CC7
:10067000D7018D919C9181309105E1F11CF4892B7A
:1006800049F0A0C08230910509F45BC0039709F4DA
:1006900074C098C080919B0090919C00A0919D0097
:1006A000B0919E00B301A201481B590B6A0B7B0B52
:1006B0008091930090919400092E000CAA0BBB0B23
:1006C00084179507A607B7070CF07CC021E030E03F
:1006D000F70131832083488259826A827B82C60176
:1006E000D1DD40929B0050929C0060929D007092E0
:1006F0009E0068C088819981AA81BB81A301920173
:10070000281B390B4A0B5B0B25313105410551057F
:100710000CF458C0D8018D919C91119701961196B7
:100720009C938E93F40120813181281739070CF0B6
:1007300045C02D933C93E2E0F0E0D701ED93FC93AC
:100740003DC088819981AA81BB81B301A201481B68
:10075000590B6A0B7B0BD5018D919C91092E000CD6
:10076000AA0BBB0B84179507A607B7075CF523E018
:1007700030E0F7013183208321C088819981AA81EB
:10078000BB81A3019201281B390B4A0B5B0B25315E
:10079000310541055105B4F0D8018D919C91119717
:1007A000019711969C938E9397FF08C01D921C92FF
:1007B0002FEF3FEFF7013183208305DD4882598217
:1007C0006A827B823FEFC31AD30A42E0E40EF11C37
:1007D000249652E0A50EB11C0E5F1F4F82E0880EDA
:1007E000911C93E0C916D10409F042CFA0E0B0E01B
:1007F000AB2B09F421CE04DC1FCE481759076A073A
:100800007B0708F46BC0F894E091BD00F091BE0046
:1008100092818091BC00892B8283E091BD00F09190
:10082000BE0091818091BC00892B8183E091BD0045
:10083000F091BE0092818091BC00892B8283E0916F
:10084000BD00F091BE0091818091BC00809589230C
:100850008183E091BD00F091BE0092818091BC0047
:10086000809589238283E091BA00F091BB00928148
:100870008091B9008095892382837894E091BD00AE
:10088000F091BE003091BC004091A9005091AA00A7
:100890006091AB007091AC00C081C3238091B50022
:1008A0009091B600A091B700B091B800CC2389F028
:1008B00084179507A607B70760F40196A11DB11D1F
:1008C0008093B5009093B600A093B700B093B800A2
:1008D000E3CF84179507A607B70728F04EEF5FEF21
:1008E0006FEF7FEF85CE215009F003CE4BDCC09037
:1008F000B100D090B200E090B300F090B400DC0101
:10090000CB018C199D09AE09BF09C090AD00D090F4
:10091000AE00E090AF00F090B000C816D906EA062D
:10092000FB0668F5C090B500D090B600E090B70027
:10093000F090B8006091A3007091A4008091A50090
:100940009091A600C616D706E806F90629F0C61A41
:10095000D70AE80AF90A03C0C12CD12C7601CCD100
:100960002DEC3CEC4CEC5DE380D295D1CB01770FC4
:10097000AA0BBB0BC816D906EA06FB0650F140913C
:10098000B5005091B6006091B7007091B8008091A9
:10099000A3009091A400A091A500B091A6004817D3
:1009A00059076A077B0740F44093A3005093A400C3
:1009B0006093A5007093A6008091A3009091A4007D
:1009C000A091A500B091A600481B590B6A0B7B0BA8
:1009D0000FCE2FEF3FEF4FEF5FE02093A300309358
:1009E000A4004093A5005093A600CCDB6093B10017
:1009F0007093B2008093B3009093B400C0CFCF93B4
:100A0000DF93C1EAD0E081E090E09983888386E3B8
:100A100091E09F838E838EE597E9A0E0B0E0888720
:100A20009987AA87BB8780E29EE4A0E0B0E08C872C
:100A30009D87AE87BF8761E082E068DB60E083E08E
:100A400065DB60E082E02ADBECE3F0E0E491E88F34
:100A5000E2E3F0E0E491F0E0EE0FFF1FE25EFF4F13
:100A6000859194919A8F898FEDE3F0E0E491EB8F7B
:100A7000E3E3F0E0E491F0E0EE0FFF1FE25EFF4FF2
:100A8000859194919D8F8C8F8FEF9FEFAFEFBFE09B
:100A90008A839B83AC83BD8375DB688B798B8A8B60
:100AA0009B8BDF91CF9108958F929F92AF92BF92CF
:100AB000CF92DF92EF92FF92CF93DF93EC016881A8
:100AC00079818A819B81611571058105910521F4E8
:100AD00064E279ED8BE597E02DE133EF41E050E002
:100AE0009CD049015A0127EA31E440E050E07CD033
:100AF0006B017C012CEE34EF4FEF5FEFC501B401C9
:100B000073D0DC01CB018C0D9D1DAE1DBF1DB7FF49
:100B100003C00197A109B04888839983AA83BB8346
:100B2000BC01CD019F77DF91CF91FF90EF90DF90D7
:100B3000CF90BF90AF909F908F9008958F929F928B
:100B4000AF92BF92CF92DF92EF92FF9260916000DE
:100B50007091610080916200909163006115710550
:100B60008105910521F464E279ED8BE597E02DE1B3
:100B700033EF41E050E051D049015A0127EA31E416
:100B800040E050E031D06B017C012CEE34EF4FEFB0
:100B90005FEFC501B40128D0DC01CB018C0D9D1D98
:100BA000AE1DBF1DB7FF03C00197A109B0488093D8
:100BB000600090936100A0936200B0936300BC0159
:100BC000CD019F77FF90EF90DF90CF90BF90AF90D7
:100BD0009F908F9008956093600070936100809360
:100BE0006200909363000895EE27FF27AA27BB2792
:100BF00008C0A20FB31FE41FF51F220F331F441FAD
:100C0000551F969587957795679598F37040A9F746
:100C1000009799F7BD01CF010895052E97FB16F4B3
:100C200000940FD057FD05D014D007FC02D046F435
:100C300008C050954095309521953F4F4F4F5F4FDD
:100C4000089590958095709561957F4F8F4F9F4F38
:100C50000895A1E21A2EAA1BBB1BFD010DC0AA1FFD
:100C6000BB1FEE1FFF1FA217B307E407F50720F015
:100C7000A21BB30BE40BF50B661F771F881F991F90
:100C80001A9469F760957095809590959B01AC01D9
:100C9000BD01CF01089504D06894B111E0C008955A
:100CA000ACD088F09F5790F0B92F9927B751A0F09A
:100CB000D1F0660F771F881F991F1AF0BA95C9F7F0
:100CC00012C0B13081F0CAD0B1E00895C7C0672F1B
:100CD000782F8827B85F39F0B93FCCF386957795A0
:100CE0006795B395D9F73EF4909580957095619589
:100CF0007F4F8F4F9F4F0895E89409C097FB3EF4B4
:100D000090958095709561957F4F8F4F9F4F992358
:100D1000A9F0F92F96E9BB279395F69587957795D6
:100D20006795B795F111F8CFFAF4BB0F11F460FF96
:100D30001BC06F5F7F4F8F4F9F4F16C0882311F0EE
:100D400096E911C0772321F09EE8872F762F05C002
:100D5000662371F096E8862F70E060E02AF09A959D
:100D6000660F771F881FDAF7880F9695879597F992
:100D700008955DD080F09F3740F491110EF06FC060
:100D800060E070E080E89FEB089526F41B16611D7B
:100D9000711D811D01C01BC0882371F4772321F0D0
:100DA0009850872B762F07C0662311F499270DC022
:100DB0009051862B70E060E02AF09A95660F771FBD
:100DC000881FDAF7880F9695879597F908959F3FC2
:100DD00031F0915020F4879577956795B795880FF6
:100DE000911D9695879597F9089557FD9058440F52
:100DF000551F59F05F3F71F04795880F97FB991F7A
:100E000061F09F3F79F08795089512161306140636
:100E1000551FF2CF4695F1DF08C0161617061806C3
:100E2000991FF1CF86957105610508940895E5DF56
:100E3000A0F0BEE7B91788F4BB279F3860F41616F8
:100E4000B11D672F782F8827985FF7CF8695779504
:100E50006795B11D93959639C8F30895E894BB271B
:100E600066277727CB0197F908950AD080C071D003
:100E700028F076D018F0952309F062C067C0EFCF54
:100E8000B4DFA8F39923D9F35523C9F3950F50E0A4
:100E9000551FAA27EE27FF27BB2700240894679534
:100EA00020F4E20FF31FB41F0A1E220F331F441F4A
:100EB000AA1F6695A9F7779530F4F30FB41F0A1EA1
:100EC000121E08F46395330F441FAA1F221F769544
:100ED00099F7879520F4B40F0A1E121E631F440F62
:100EE000AA1F221F331F8695A9F7862F712D602D0B
:100EF00011249F5750408AF0E1F088234AF0EE0F0A
:100F0000FF1FBB1F661F771F881F91505040A9F716
:100F10009E3F510570F014C0A2CF5F3FECF3983EA6
:100F2000DCF3869577956795B795F795E7959F5F7D
:100F3000C1F7FE2B880F911D9695879597F9089517
:100F400097F99F6780E870E060E008959FEF80EC7C
:100F5000089500240A94161617061806090608951F
:100F600000240A9412161306140605060895092E85
:100F70000394000C11F4882352F0BB0F40F4BF2BF4
:100F800011F460FF04C06F5F7F4F8F4F9F4F089534
:100F900097FB072E16F4009406D077FD08D00BD0EF
:100FA00007FC05D03EF4909581959F4F089570956C
:100FB00061957F4F0895AA1BBB1B51E107C0AA1F73
:100FC000BB1FA617B70710F0A61BB70B881F991FEA
:100FD0005A95A9F780959095BC01CD010895EE0F23
:0E0FE000FF1F0590F491E02D0994F894FFCFC7
:0A0FEE0001000000000001000400F3
:00000001FF
